{
  "contractName": "RandomOracle",
  "abi": [
    {
      "constant": true,
      "inputs": [],
      "name": "serialNumberUint",
      "outputs": [
        {
          "name": "",
          "type": "uint256"
        }
      ],
      "payable": false,
      "stateMutability": "view",
      "type": "function"
    },
    {
      "constant": true,
      "inputs": [],
      "name": "parsedResult",
      "outputs": [
        {
          "name": "",
          "type": "uint256"
        }
      ],
      "payable": false,
      "stateMutability": "view",
      "type": "function"
    },
    {
      "constant": true,
      "inputs": [],
      "name": "randomNumberUint",
      "outputs": [
        {
          "name": "",
          "type": "uint256"
        }
      ],
      "payable": false,
      "stateMutability": "view",
      "type": "function"
    },
    {
      "inputs": [],
      "payable": false,
      "stateMutability": "nonpayable",
      "type": "constructor"
    },
    {
      "anonymous": false,
      "inputs": [
        {
          "indexed": false,
          "name": "description",
          "type": "string"
        }
      ],
      "name": "LogOraclizeQuery",
      "type": "event"
    },
    {
      "anonymous": false,
      "inputs": [
        {
          "indexed": false,
          "name": "number",
          "type": "uint256"
        }
      ],
      "name": "LogResultReceived",
      "type": "event"
    },
    {
      "constant": false,
      "inputs": [],
      "name": "getRandomNumber",
      "outputs": [],
      "payable": true,
      "stateMutability": "payable",
      "type": "function"
    },
    {
      "constant": false,
      "inputs": [
        {
          "name": "myid",
          "type": "bytes32"
        },
        {
          "name": "result",
          "type": "string"
        }
      ],
      "name": "__callback",
      "outputs": [],
      "payable": false,
      "stateMutability": "nonpayable",
      "type": "function"
    },
    {
      "constant": false,
      "inputs": [
        {
          "name": "queryId",
          "type": "bytes32"
        },
        {
          "name": "result",
          "type": "string"
        },
        {
          "name": "proof",
          "type": "bytes"
        }
      ],
      "name": "__callback",
      "outputs": [],
      "payable": false,
      "stateMutability": "nonpayable",
      "type": "function"
    }
  ],
  "bytecode": "0x60806040523480156200001157600080fd5b506200007460017f01000000000000000000000000000000000000000000000000000000000000000260107f0100000000000000000000000000000000000000000000000000000000000000021762000098640100000000026401000000009004565b62000092633b9aca006200044c640100000000026401000000009004565b62000e0c565b60008060009054906101000a900473ffffffffffffffffffffffffffffffffffffffff1673ffffffffffffffffffffffffffffffffffffffff1614806200011957506000620001176000809054906101000a900473ffffffffffffffffffffffffffffffffffffffff16620007bc640100000000026401000000009004565b145b156200013c576200013a6000620007c7640100000000026401000000009004565b505b6000809054906101000a900473ffffffffffffffffffffffffffffffffffffffff1673ffffffffffffffffffffffffffffffffffffffff166338cc48316040518163ffffffff167c0100000000000000000000000000000000000000000000000000000000028152600401602060405180830381600087803b158015620001c257600080fd5b505af1158015620001d7573d6000803e3d6000fd5b505050506040513d6020811015620001ee57600080fd5b810190808051906020019092919050505073ffffffffffffffffffffffffffffffffffffffff16600160009054906101000a900473ffffffffffffffffffffffffffffffffffffffff1673ffffffffffffffffffffffffffffffffffffffff161415156200035a576000809054906101000a900473ffffffffffffffffffffffffffffffffffffffff1673ffffffffffffffffffffffffffffffffffffffff166338cc48316040518163ffffffff167c0100000000000000000000000000000000000000000000000000000000028152600401602060405180830381600087803b158015620002dc57600080fd5b505af1158015620002f1573d6000803e3d6000fd5b505050506040513d60208110156200030857600080fd5b8101908080519060200190929190505050600160006101000a81548173ffffffffffffffffffffffffffffffffffffffff021916908373ffffffffffffffffffffffffffffffffffffffff1602179055505b600160009054906101000a900473ffffffffffffffffffffffffffffffffffffffff1673ffffffffffffffffffffffffffffffffffffffff1663688dcfd7826040518263ffffffff167c010000000000000000000000000000000000000000000000000000000002815260040180827effffffffffffffffffffffffffffffffffffffffffffffffffffffffffffff19167effffffffffffffffffffffffffffffffffffffffffffffffffffffffffffff19168152602001915050600060405180830381600087803b1580156200043057600080fd5b505af115801562000445573d6000803e3d6000fd5b5050505050565b60008060009054906101000a900473ffffffffffffffffffffffffffffffffffffffff1673ffffffffffffffffffffffffffffffffffffffff161480620004cd57506000620004cb6000809054906101000a900473ffffffffffffffffffffffffffffffffffffffff16620007bc640100000000026401000000009004565b145b15620004f057620004ee6000620007c7640100000000026401000000009004565b505b6000809054906101000a900473ffffffffffffffffffffffffffffffffffffffff1673ffffffffffffffffffffffffffffffffffffffff166338cc48316040518163ffffffff167c0100000000000000000000000000000000000000000000000000000000028152600401602060405180830381600087803b1580156200057657600080fd5b505af11580156200058b573d6000803e3d6000fd5b505050506040513d6020811015620005a257600080fd5b810190808051906020019092919050505073ffffffffffffffffffffffffffffffffffffffff16600160009054906101000a900473ffffffffffffffffffffffffffffffffffffffff1673ffffffffffffffffffffffffffffffffffffffff161415156200070e576000809054906101000a900473ffffffffffffffffffffffffffffffffffffffff1673ffffffffffffffffffffffffffffffffffffffff166338cc48316040518163ffffffff167c0100000000000000000000000000000000000000000000000000000000028152600401602060405180830381600087803b1580156200069057600080fd5b505af1158015620006a5573d6000803e3d6000fd5b505050506040513d6020811015620006bc57600080fd5b8101908080519060200190929190505050600160006101000a81548173ffffffffffffffffffffffffffffffffffffffff021916908373ffffffffffffffffffffffffffffffffffffffff1602179055505b600160009054906101000a900473ffffffffffffffffffffffffffffffffffffffff1673ffffffffffffffffffffffffffffffffffffffff1663ca6ad1e4826040518263ffffffff167c010000000000000000000000000000000000000000000000000000000002815260040180828152602001915050600060405180830381600087803b158015620007a057600080fd5b505af1158015620007b5573d6000803e3d6000fd5b5050505050565b6000813b9050919050565b6000620007e2620007e9640100000000026401000000009004565b9050919050565b6000806200081a731d3b2638a7cc9f2cb3d298a3da7a90b67e5506ed620007bc640100000000026401000000009004565b1115620008ce57731d3b2638a7cc9f2cb3d298a3da7a90b67e5506ed6000806101000a81548173ffffffffffffffffffffffffffffffffffffffff021916908373ffffffffffffffffffffffffffffffffffffffff160217905550620008c46040805190810160405280600b81526020017f6574685f6d61696e6e657400000000000000000000000000000000000000000081525062000d41640100000000026401000000009004565b6001905062000d3e565b6000620008fe73c03a2615d5efaf5f49f60b7bb6583eaec212fdf1620007bc640100000000026401000000009004565b1115620009b25773c03a2615d5efaf5f49f60b7bb6583eaec212fdf16000806101000a81548173ffffffffffffffffffffffffffffffffffffffff021916908373ffffffffffffffffffffffffffffffffffffffff160217905550620009a86040805190810160405280600c81526020017f6574685f726f707374656e33000000000000000000000000000000000000000081525062000d41640100000000026401000000009004565b6001905062000d3e565b6000620009e273b7a07bcf2ba2f2703b24c0691b5278999c59ac7e620007bc640100000000026401000000009004565b111562000a965773b7a07bcf2ba2f2703b24c0691b5278999c59ac7e6000806101000a81548173ffffffffffffffffffffffffffffffffffffffff021916908373ffffffffffffffffffffffffffffffffffffffff16021790555062000a8c6040805190810160405280600981526020017f6574685f6b6f76616e000000000000000000000000000000000000000000000081525062000d41640100000000026401000000009004565b6001905062000d3e565b600062000ac673146500cfd35b22e4a392fe0adc06de1a1368ed48620007bc640100000000026401000000009004565b111562000b7a5773146500cfd35b22e4a392fe0adc06de1a1368ed486000806101000a81548173ffffffffffffffffffffffffffffffffffffffff021916908373ffffffffffffffffffffffffffffffffffffffff16021790555062000b706040805190810160405280600b81526020017f6574685f72696e6b65627900000000000000000000000000000000000000000081525062000d41640100000000026401000000009004565b6001905062000d3e565b600062000baa736f485c8bf6fc43ea212e93bbf8ce046c7f1cb475620007bc640100000000026401000000009004565b111562000c0f57736f485c8bf6fc43ea212e93bbf8ce046c7f1cb4756000806101000a81548173ffffffffffffffffffffffffffffffffffffffff021916908373ffffffffffffffffffffffffffffffffffffffff1602179055506001905062000d3e565b600062000c3f7320e12a1f859b3feae5fb2a0a32c18f5a65555bbf620007bc640100000000026401000000009004565b111562000ca4577320e12a1f859b3feae5fb2a0a32c18f5a65555bbf6000806101000a81548173ffffffffffffffffffffffffffffffffffffffff021916908373ffffffffffffffffffffffffffffffffffffffff1602179055506001905062000d3e565b600062000cd47351efaf4c8b3c9afbd5ab9f4bbc82784ab6ef8faa620007bc640100000000026401000000009004565b111562000d39577351efaf4c8b3c9afbd5ab9f4bbc82784ab6ef8faa6000806101000a81548173ffffffffffffffffffffffffffffffffffffffff021916908373ffffffffffffffffffffffffffffffffffffffff1602179055506001905062000d3e565b600090505b90565b806002908051906020019062000d5992919062000d5d565b5050565b828054600181600116156101000203166002900490600052602060002090601f016020900481019282601f1062000da057805160ff191683800117855562000dd1565b8280016001018555821562000dd1579182015b8281111562000dd057825182559160200191906001019062000db3565b5b50905062000de0919062000de4565b5090565b62000e0991905b8082111562000e0557600081600090555060010162000deb565b5090565b90565b611b358062000e1c6000396000f300608060405260043610610078576000357c0100000000000000000000000000000000000000000000000000000000900463ffffffff16806327dc297e1461007d57806338bbfa50146100f4578063492325c9146101b1578063ab770f22146101dc578063dbdff2c114610207578063e6a60f4014610211575b600080fd5b34801561008957600080fd5b506100f26004803603810190808035600019169060200190929190803590602001908201803590602001908080601f016020809104026020016040519081016040528093929190818152602001838380828437820191505050505050919291929050505061023c565b005b34801561010057600080fd5b506101af6004803603810190808035600019169060200190929190803590602001908201803590602001908080601f0160208091040260200160405190810160405280939291908181526020018383808284378201915050505050509192919290803590602001908201803590602001908080601f016020809104026020016040519081016040528093929190818152602001838380828437820191505050505050919291929050505061027f565b005b3480156101bd57600080fd5b506101c661038b565b6040518082815260200191505060405180910390f35b3480156101e857600080fd5b506101f1610391565b6040518082815260200191505060405180910390f35b61020f610397565b005b34801561021d57600080fd5b506102266104d4565b6040518082815260200191505060405180910390f35b61027b828260006040519080825280601f01601f1916602001820160405280156102755781602001602082028038833980820191505090505b5061027f565b5050565b6102876104da565b73ffffffffffffffffffffffffffffffffffffffff163373ffffffffffffffffffffffffffffffffffffffff161415156102c057600080fd5b60086000846000191660001916815260200190815260200160002060009054906101000a900460ff1615156102f457600080fd5b6102fd82610838565b60058190555061030e60055461084c565b610319600554610885565b7ff701f221c51454b30553d1c1b24a54a02b40ae30f869bf9b9c0583d295ab2a176005546040518082815260200191505060405180910390a1600060086000856000191660001916815260200190815260200160002060006101000a81548160ff021916908315150217905550505050565b60065481565b60055481565b6000659f295cd5f00034101515156103ae57600080fd5b61040d6040805190810160405280600681526020017f6e657374656400000000000000000000000000000000000000000000000000008152506101606040519081016040528061012981526020016119e161012991396202ab986108c1565b90507f0415a732c27dc65a8318b1f49677f1d76eb7365d60653ee494ed0897ef70abc86040518080602001828103825260358152602001807f4f7261636c697a65207175657279207761732073656e742c207374616e64696e81526020017f6720627920666f722074686520616e737765722e2e000000000000000000000081525060400191505060405180910390a1600160086000836000191660001916815260200190815260200160002060006101000a81548160ff02191690831515021790555050565b60075481565b6000806000809054906101000a900473ffffffffffffffffffffffffffffffffffffffff1673ffffffffffffffffffffffffffffffffffffffff16148061054a575060006105486000809054906101000a900473ffffffffffffffffffffffffffffffffffffffff16610e71565b145b1561055b576105596000610e7c565b505b6000809054906101000a900473ffffffffffffffffffffffffffffffffffffffff1673ffffffffffffffffffffffffffffffffffffffff166338cc48316040518163ffffffff167c0100000000000000000000000000000000000000000000000000000000028152600401602060405180830381600087803b1580156105e057600080fd5b505af11580156105f4573d6000803e3d6000fd5b505050506040513d602081101561060a57600080fd5b810190808051906020019092919050505073ffffffffffffffffffffffffffffffffffffffff16600160009054906101000a900473ffffffffffffffffffffffffffffffffffffffff1673ffffffffffffffffffffffffffffffffffffffff16141515610772576000809054906101000a900473ffffffffffffffffffffffffffffffffffffffff1673ffffffffffffffffffffffffffffffffffffffff166338cc48316040518163ffffffff167c0100000000000000000000000000000000000000000000000000000000028152600401602060405180830381600087803b1580156106f657600080fd5b505af115801561070a573d6000803e3d6000fd5b505050506040513d602081101561072057600080fd5b8101908080519060200190929190505050600160006101000a81548173ffffffffffffffffffffffffffffffffffffffff021916908373ffffffffffffffffffffffffffffffffffffffff1602179055505b600160009054906101000a900473ffffffffffffffffffffffffffffffffffffffff1673ffffffffffffffffffffffffffffffffffffffff1663c281d19e6040518163ffffffff167c0100000000000000000000000000000000000000000000000000000000028152600401602060405180830381600087803b1580156107f857600080fd5b505af115801561080c573d6000803e3d6000fd5b505050506040513d602081101561082257600080fd5b8101908080519060200190929190505050905090565b6000610845826000610e8d565b9050919050565b6000606082915061085c82611181565b905061087a61087560078361135d90919063ffffffff16565b610838565b600681905550505050565b6000606082915061089582611181565b90506108b66108b160056007846113739092919063ffffffff16565b610838565b600781905550505050565b60008060008060009054906101000a900473ffffffffffffffffffffffffffffffffffffffff1673ffffffffffffffffffffffffffffffffffffffff161480610933575060006109316000809054906101000a900473ffffffffffffffffffffffffffffffffffffffff16610e71565b145b15610944576109426000610e7c565b505b6000809054906101000a900473ffffffffffffffffffffffffffffffffffffffff1673ffffffffffffffffffffffffffffffffffffffff166338cc48316040518163ffffffff167c0100000000000000000000000000000000000000000000000000000000028152600401602060405180830381600087803b1580156109c957600080fd5b505af11580156109dd573d6000803e3d6000fd5b505050506040513d60208110156109f357600080fd5b810190808051906020019092919050505073ffffffffffffffffffffffffffffffffffffffff16600160009054906101000a900473ffffffffffffffffffffffffffffffffffffffff1673ffffffffffffffffffffffffffffffffffffffff16141515610b5b576000809054906101000a900473ffffffffffffffffffffffffffffffffffffffff1673ffffffffffffffffffffffffffffffffffffffff166338cc48316040518163ffffffff167c0100000000000000000000000000000000000000000000000000000000028152600401602060405180830381600087803b158015610adf57600080fd5b505af1158015610af3573d6000803e3d6000fd5b505050506040513d6020811015610b0957600080fd5b8101908080519060200190929190505050600160006101000a81548173ffffffffffffffffffffffffffffffffffffffff021916908373ffffffffffffffffffffffffffffffffffffffff1602179055505b600160009054906101000a900473ffffffffffffffffffffffffffffffffffffffff1673ffffffffffffffffffffffffffffffffffffffff16632ef3accc86856040518363ffffffff167c01000000000000000000000000000000000000000000000000000000000281526004018080602001838152602001828103825284818151815260200191508051906020019080838360005b83811015610c0c578082015181840152602081019050610bf1565b50505050905090810190601f168015610c395780820380516001836020036101000a031916815260200191505b509350505050602060405180830381600087803b158015610c5957600080fd5b505af1158015610c6d573d6000803e3d6000fd5b505050506040513d6020811015610c8357600080fd5b81019080805190602001909291905050509050823a02670de0b6b3a764000001811115610cb65760006001029150610e69565b600160009054906101000a900473ffffffffffffffffffffffffffffffffffffffff1673ffffffffffffffffffffffffffffffffffffffff1663c51be90f8260008888886040518663ffffffff167c0100000000000000000000000000000000000000000000000000000000028152600401808581526020018060200180602001848152602001838103835286818151815260200191508051906020019080838360005b83811015610d75578082015181840152602081019050610d5a565b50505050905090810190601f168015610da25780820380516001836020036101000a031916815260200191505b50838103825285818151815260200191508051906020019080838360005b83811015610ddb578082015181840152602081019050610dc0565b50505050905090810190601f168015610e085780820380516001836020036101000a031916815260200191505b5096505050505050506020604051808303818588803b158015610e2a57600080fd5b505af1158015610e3e573d6000803e3d6000fd5b50505050506040513d6020811015610e5557600080fd5b810190808051906020019092919050505091505b509392505050565b6000813b9050919050565b6000610e86611492565b9050919050565b6000606060008060008693506000925060009150600090505b83518110156111625760307f0100000000000000000000000000000000000000000000000000000000000000028482815181101515610ee157fe5b9060200101517f010000000000000000000000000000000000000000000000000000000000000090047f0100000000000000000000000000000000000000000000000000000000000000027effffffffffffffffffffffffffffffffffffffffffffffffffffffffffffff191610158015610ff9575060397f0100000000000000000000000000000000000000000000000000000000000000028482815181101515610f8957fe5b9060200101517f010000000000000000000000000000000000000000000000000000000000000090047f0100000000000000000000000000000000000000000000000000000000000000027effffffffffffffffffffffffffffffffffffffffffffffffffffffffffffff191611155b156110aa57811561101c57600086141561101257611162565b8580600190039650505b600a830292506030848281518110151561103257fe5b9060200101517f010000000000000000000000000000000000000000000000000000000000000090047f0100000000000000000000000000000000000000000000000000000000000000027f010000000000000000000000000000000000000000000000000000000000000090040383019250611155565b602e7f01000000000000000000000000000000000000000000000000000000000000000284828151811015156110dc57fe5b9060200101517f010000000000000000000000000000000000000000000000000000000000000090047f0100000000000000000000000000000000000000000000000000000000000000027effffffffffffffffffffffffffffffffffffffffffffffffffffffffffffff1916141561115457600191505b5b8080600101915050610ea6565b60008611156111745785600a0a830292505b8294505050505092915050565b60608060006060600060206040519080825280601f01601f1916602001820160405280156111be5781602001602082028038833980820191505090505b509350600092505b600086111561125b576030600a878115156111dd57fe5b06017f010000000000000000000000000000000000000000000000000000000000000002848481518110151561120f57fe5b9060200101907effffffffffffffffffffffffffffffffffffffffffffffffffffffffffffff1916908160001a905350600a8681151561124b57fe5b04955082806001019350506111c6565b82806001900393506040519080825280601f01601f1916602001820160405280156112955781602001602082028038833980820191505090505b509150600090505b8151811015611351578383806001900394508151811015156112bb57fe5b9060200101517f010000000000000000000000000000000000000000000000000000000000000090047f010000000000000000000000000000000000000000000000000000000000000002828281518110151561131457fe5b9060200101907effffffffffffffffffffffffffffffffffffffffffffffffffffffffffffff1916908160001a905350808060010191505061129d565b81945050505050919050565b606061136b83836000611373565b905092915050565b60608060608060008088945084518888011115151561138e57fe5b876040519080825280601f01601f1916602001820160405280156113c15781602001602082028038833980820191505090505b509350839250600091508690505b8787018110156114835784818151811015156113e757fe5b9060200101517f010000000000000000000000000000000000000000000000000000000000000090047f010000000000000000000000000000000000000000000000000000000000000002838380600101945081518110151561144657fe5b9060200101907effffffffffffffffffffffffffffffffffffffffffffffffffffffffffffff1916908160001a90535080806001019150506113cf565b82955050505050509392505050565b6000806114b2731d3b2638a7cc9f2cb3d298a3da7a90b67e5506ed610e71565b111561155357731d3b2638a7cc9f2cb3d298a3da7a90b67e5506ed6000806101000a81548173ffffffffffffffffffffffffffffffffffffffff021916908373ffffffffffffffffffffffffffffffffffffffff16021790555061154a6040805190810160405280600b81526020017f6574685f6d61696e6e6574000000000000000000000000000000000000000000815250611921565b6001905061191e565b600061157273c03a2615d5efaf5f49f60b7bb6583eaec212fdf1610e71565b11156116135773c03a2615d5efaf5f49f60b7bb6583eaec212fdf16000806101000a81548173ffffffffffffffffffffffffffffffffffffffff021916908373ffffffffffffffffffffffffffffffffffffffff16021790555061160a6040805190810160405280600c81526020017f6574685f726f707374656e330000000000000000000000000000000000000000815250611921565b6001905061191e565b600061163273b7a07bcf2ba2f2703b24c0691b5278999c59ac7e610e71565b11156116d35773b7a07bcf2ba2f2703b24c0691b5278999c59ac7e6000806101000a81548173ffffffffffffffffffffffffffffffffffffffff021916908373ffffffffffffffffffffffffffffffffffffffff1602179055506116ca6040805190810160405280600981526020017f6574685f6b6f76616e0000000000000000000000000000000000000000000000815250611921565b6001905061191e565b60006116f273146500cfd35b22e4a392fe0adc06de1a1368ed48610e71565b11156117935773146500cfd35b22e4a392fe0adc06de1a1368ed486000806101000a81548173ffffffffffffffffffffffffffffffffffffffff021916908373ffffffffffffffffffffffffffffffffffffffff16021790555061178a6040805190810160405280600b81526020017f6574685f72696e6b656279000000000000000000000000000000000000000000815250611921565b6001905061191e565b60006117b2736f485c8bf6fc43ea212e93bbf8ce046c7f1cb475610e71565b111561181557736f485c8bf6fc43ea212e93bbf8ce046c7f1cb4756000806101000a81548173ffffffffffffffffffffffffffffffffffffffff021916908373ffffffffffffffffffffffffffffffffffffffff1602179055506001905061191e565b60006118347320e12a1f859b3feae5fb2a0a32c18f5a65555bbf610e71565b1115611897577320e12a1f859b3feae5fb2a0a32c18f5a65555bbf6000806101000a81548173ffffffffffffffffffffffffffffffffffffffff021916908373ffffffffffffffffffffffffffffffffffffffff1602179055506001905061191e565b60006118b67351efaf4c8b3c9afbd5ab9f4bbc82784ab6ef8faa610e71565b1115611919577351efaf4c8b3c9afbd5ab9f4bbc82784ab6ef8faa6000806101000a81548173ffffffffffffffffffffffffffffffffffffffff021916908373ffffffffffffffffffffffffffffffffffffffff1602179055506001905061191e565b600090505b90565b806002908051906020019061193792919061193b565b5050565b828054600181600116156101000203166002900490600052602060002090601f016020900481019282601f1061197c57805160ff19168380011785556119aa565b828001600101855582156119aa579182015b828111156119a957825182559160200191906001019061198e565b5b5090506119b791906119bb565b5090565b6119dd91905b808211156119d95760008160009055506001016119c1565b5090565b9056005b55524c5d205b276a736f6e2868747470733a2f2f6170692e72616e646f6d2e6f72672f6a736f6e2d7270632f312f696e766f6b65292e726573756c742e72616e646f6d5b2273657269616c4e756d626572222c2264617461225d272c20275c6e7b226a736f6e727063223a2022322e30222c20226d6574686f64223a202267656e65726174655369676e6564496e746567657273222c2022706172616d73223a207b20226170694b6579223a202230303030303030302d303030302d303030302d303030302d303030303030303030303030222c20226e223a20312c20226d696e223a20312c20226d6178223a203130303030302c20227265706c6163656d656e74223a20747275652c202262617365223a203130207d2c20226964223a203134323135207d275da165627a7a72305820559378663c89adefcee7fd51fd6b8d792f01da20a11724f03b0c33bb228cdcea0029",
  "source": "pragma solidity ^0.4.24;\n\nimport \"./API/oraclizeAPI_0.5.sol\";\nimport \"./Utils/Strings.sol\";\nimport \"./Utils/Integers.sol\";\n\ncontract RandomOracle is usingOraclize {\n\n    using Strings for string;\n    using Integers for uint;\n\n    uint public parsedResult;\n    uint public serialNumberUint;\n    uint public randomNumberUint;\n\n    mapping(bytes32 => bool) validIds;\n    uint constant gasLimitForOraclize = 175000;\n\n    event LogOraclizeQuery(string description);\n    event LogResultReceived(uint number);\n\n    constructor() public {\n        oraclize_setProof(proofType_TLSNotary | proofStorage_IPFS);\n        oraclize_setCustomGasPrice(1000000000 wei);\n    }\n\n    function getRandomNumber() public payable {\n        require(msg.value >= 0.000175 ether);\n        bytes32 queryId = oraclize_query(\n          \"nested\",\n          \"[URL] ['json(https://api.random.org/json-rpc/1/invoke).result.random[\\\"serialNumber\\\",\\\"data\\\"]', '\\\\n{\\\"jsonrpc\\\": \\\"2.0\\\", \\\"method\\\": \\\"generateSignedIntegers\\\", \\\"params\\\": { \\\"apiKey\\\": \\\"00000000-0000-0000-0000-000000000000\\\", \\\"n\\\": 1, \\\"min\\\": 1, \\\"max\\\": 100000, \\\"replacement\\\": true, \\\"base\\\": 10 }, \\\"id\\\": 14215 }']\",\n          gasLimitForOraclize);\n        emit LogOraclizeQuery(\"Oraclize query was sent, standing by for the answer..\");\n        validIds[queryId] = true;\n    }\n\n    function __callback(bytes32 queryId, string result, bytes proof) public {\n        require(msg.sender == oraclize_cbAddress());\n        require(validIds[queryId]);\n\n        parsedResult = parseInt(result);\n\n        parseSerialNumber(parsedResult);\n        parseRandomNumber(parsedResult);\n\n        emit LogResultReceived(parsedResult);\n        validIds[queryId] = false;\n    }\n\n    function parseSerialNumber(uint _result) internal {\n        uint uintToParseForSerialNum = _result;\n        string memory parsedResultString = uintToParseForSerialNum.toString();\n        serialNumberUint = parseInt(parsedResultString.substring(7));\n    }\n\n    function parseRandomNumber(uint _result) internal {\n        uint uintToParseForRandomNum = _result;\n        string memory parsedResultUint = uintToParseForRandomNum.toString();\n        randomNumberUint = parseInt(parsedResultUint._substring(5,7));\n    }\n}\n",
  "sourcePath": "/Users/stupeters187/Desktop/Ethereum/oraclize/randomOracle/contracts/RandomOracle.sol",
  "compiler": {
    "name": "solc",
    "version": "0.4.24+commit.e67f0147.Emscripten.clang"
  },
  "schemaVersion": "2.0.1",
  "updatedAt": "2018-09-06T17:33:08.910Z"
}